{
  "contractName": "testtoken1Sale",
  "abi": [
    {
      "constant": true,
      "inputs": [],
      "name": "testtokenContract",
      "outputs": [
        {
          "name": "",
          "type": "address"
        }
      ],
      "payable": false,
      "stateMutability": "view",
      "type": "function"
    },
    {
      "constant": true,
      "inputs": [],
      "name": "tokenSold",
      "outputs": [
        {
          "name": "",
          "type": "uint256"
        }
      ],
      "payable": false,
      "stateMutability": "view",
      "type": "function"
    },
    {
      "constant": true,
      "inputs": [],
      "name": "tokenPrice",
      "outputs": [
        {
          "name": "",
          "type": "uint256"
        }
      ],
      "payable": false,
      "stateMutability": "view",
      "type": "function"
    },
    {
      "inputs": [
        {
          "name": "_tokenContract",
          "type": "address"
        },
        {
          "name": "_tokenPrice",
          "type": "uint256"
        }
      ],
      "payable": false,
      "stateMutability": "nonpayable",
      "type": "constructor"
    },
    {
      "anonymous": false,
      "inputs": [
        {
          "indexed": false,
          "name": "_buyer",
          "type": "address"
        },
        {
          "indexed": false,
          "name": "_amount",
          "type": "uint256"
        }
      ],
      "name": "Sell",
      "type": "event"
    },
    {
      "constant": false,
      "inputs": [
        {
          "name": "_no_of_tokens",
          "type": "uint256"
        }
      ],
      "name": "buyToken",
      "outputs": [],
      "payable": true,
      "stateMutability": "payable",
      "type": "function"
    }
  ],
  "bytecode": "0x608060405234801561001057600080fd5b506040516040806103268339810180604052810190808051906020019092919080519060200190929190505050336000806101000a81548173ffffffffffffffffffffffffffffffffffffffff021916908373ffffffffffffffffffffffffffffffffffffffff16021790555081600160006101000a81548173ffffffffffffffffffffffffffffffffffffffff021916908373ffffffffffffffffffffffffffffffffffffffff160217905550806002819055505050610250806100d66000396000f300608060405260043610610062576000357c0100000000000000000000000000000000000000000000000000000000900463ffffffff1680632d296bf114610067578063343c31cf14610087578063519ee19e146100de5780637ff9b59614610109575b600080fd5b61008560048036038101908080359060200190929190505050610134565b005b34801561009357600080fd5b5061009c6101c2565b604051808273ffffffffffffffffffffffffffffffffffffffff1673ffffffffffffffffffffffffffffffffffffffff16815260200191505060405180910390f35b3480156100ea57600080fd5b506100f36101e8565b6040518082815260200191505060405180910390f35b34801561011557600080fd5b5061011e6101ee565b6040518082815260200191505060405180910390f35b610140816002546101f4565b3414151561014d57600080fd5b806003819055507f5e5e995ce3133561afceaa51a9a154d5db228cd7525d34df5185582c18d3df093382604051808373ffffffffffffffffffffffffffffffffffffffff1673ffffffffffffffffffffffffffffffffffffffff1681526020018281526020019250505060405180910390a150565b600160009054906101000a900473ffffffffffffffffffffffffffffffffffffffff1681565b60035481565b60025481565b6000808214806102135750828283850292508281151561021057fe5b04145b151561021e57600080fd5b929150505600a165627a7a7230582036535539702d04c4065431886c7404c9f0379bbd388d833111b63a4daa3b0f290029",
  "source": "pragma solidity ^0.4.23;\n\nimport \"./testtoken1.sol\";\n\ncontract testtoken1Sale  {\n\n\taddress admin; //does not have a public visibility because we do not want reveal the address\n\ttesttoken1 public testtokenContract;\n\tuint256 public tokenPrice;\n\tuint256 public tokenSold;\n\n\tevent Sell(address _buyer, uint256 _amount);\n\n\t//we need to pass the address to the contructor from migrations file\n\tconstructor(testtoken1 _tokenContract, uint256 _tokenPrice) public {\n\n\t\t//Assign an admin\n\t\t//Token contract\n\t\t//Token Price\n\t\tadmin = msg.sender;\n\t\ttesttokenContract = _tokenContract;\n\t\ttokenPrice = _tokenPrice;\n\n\t}\n\n\t//Safe Multiply function from DSMath\n\tfunction mul(uint x, uint y) internal pure returns (uint z) {\n        require(y == 0 || (z = x * y) / y == x);\n    }\n\n\tfunction buyToken(uint256 _no_of_tokens) public payable {  //payable because we have to exchange ether in return of the token\n\n\t\t//Require that the value people are paying is equal to the value of _no_of_tokens\n\t\trequire(msg.value == mul(_no_of_tokens, tokenPrice));\n\t\t//Require that the contract has enough _no_of_tokens\n\t\t//Require that a transfer is successful\n\t\t//Keep track of the no of tokens sold\n\t\ttokenSold = _no_of_tokens;\n\n\t\t//Trigger a sell event\n\t\temit Sell(msg.sender, _no_of_tokens);\n\n\t}\n}",
  "sourcePath": "/Users/herambadash/tokens/contracts/testtoken1Sale.sol",
  "compiler": {
    "name": "solc",
    "version": "0.4.24+commit.e67f0147.Emscripten.clang"
  },
  "schemaVersion": "2.0.1",
  "updatedAt": "2018-07-23T19:58:13.559Z"
}